BFH0000000101GBE169230PROD2310190634BW004043                                                                                            
BCH00000002021031231023D231018                                                                                                          
BOH000000030377200771231031BWP2                                                                                                         
BKT0000000406000001  036169                                     AGTD                                                                    
BKS00000005242310180000011699397146739 5FFFF   77200771                TKTTGBEGBE    VOFU8D/1A    0000                                  
BOT00000128937721063023103100000000075950{00000000075950{00000000000000}00000000019530{TKTT00000000000000{                          BWP2
